:020000021000EC
:10C000000000012075360200B5360200B736020086
:10C01000B9360200BB360200BD3602000000000047
:10C02000000000000000000000000000CD3C020005
:10C03000C136020000000000ED3C0200C5360200DF
:10C04000C7360200C736020091530200C73602000D
:10C0500011F50100C7360200C7360200C7360200DC
:10C06000C7360200C7360200C7360200C7360200D4
:10C07000C7360200C7360200C7360200C7360200C4
:10C08000C7360200053C0200C7360200C736020070
:10C09000C7360200C736020055E30100C73602006A
:10C0A000C7360200C7360200C7360200C736020094
:10C0B000C7360200C7360200000000000000000082
:10C0C000C7360200C7360200C7360200C736020074
:10C0D000C7360200C7360200C73602000000000063
:10C0E0000000000000000000000000000000000050
:10C0F0000000000000000000000000000000000040
:10C10000000000000000000000000000000000002F
:10C11000000000000000000000000000000000001F
:10C40000044B05481B1A062B02D9044B03B11847ED
:10C41000704700BF0B3A0020083A002000000000DF
:10C4200005490648091A891001EBD171491002D05B
:10C43000034B03B118477047083A0020083A002020
:10C440000000000010B5064C237843B9FFF7D8FF71
:10C45000044B13B10448AFF300800123237010BDD7
:10C46000083A0020000000001CAF020008B5084B8D
:10C470001BB108490848AFF300800848036813B9A6
:10C48000BDE80840CCE7064B002BF9D09847F7E70A
:10C49000000000000C3A00201CAF0200043A00200B
:10C4A00000000000154B002B08BF134B9D46A3F561
:10C4B000803A00218B460F461348144A121A09F09D
:10C4C00050FE0F4B002B00D098470E4B002B00D096
:10C4D00098470020002104000D000D48002802D0DC
:10C4E0000C48AFF3008009F0D1FD2000290008F0CE
:10C4F00089FF09F0A5FD00BF000008000000012031
:10C500000000000000000000083A00200445002060
:10C51000000000000000000010B5054C204608F0A7
:10C5200019FD20460349BDE8104008F01BBD00BFBF
:10C5300054420020D08E020030B5202489B0054638
:10C5400022460021684609F00CFE2346074C0848A5
:10C550006A46294601F00AFA0649204608F0F3FC2B
:10C560006946204608F0FEFC09B030BD5442002068
:10C570002C3C0020DD8E020010B5114C0621204617
:10C5800000F06AFD204600F055FD0E49204600F0FF
:10C5900027FD04F1340000F031FD2046012100F0B8
:10C5A00082FD2046F422202100F07AFD20461E2143
:10C5B00000F074FD20460021BDE8104000F0A0BD51
:10C5C0007C3E0020343A002010B5194C194802F086
:10C5D00087FA4FF48071204602F078FB164A17491B
:10C5E000204609F0FBFC2821154802F0A9FF154B55
:10C5F000186809F03DFA0CA3D3E9002309F08CFA7E
:10C6000009F09CFC104B1860104B186809F030FAC8
:10C6100005A3D3E9002309F07FFA09F08FFC0C4B46
:10C62000186010BDAFF30080AA4C58E87AB6EB3F13
:10C63000343A0020E83B00208038002009EE010059
:10C64000083B002094380020003B0020143C0020D0
:10C65000183C002070B50A4C0E460146204615468F
:10C6600002F0A3FE3146204602F09EFD29462046F8
:10C6700002F09AFD2046BDE8704002F0F1BE00BF16
:10C680000840002008B5012207212820FFF7E2FF1B
:10C69000254B1A78254B1B78DB0043EA4213244ACA
:10C6A00012781A43D2B208212820FFF7D3FF214B7A
:10C6B0001A78214B1B7843EAC202D2B20A21282001
:10C6C000FFF7C8FF1D4B0B211A782820FFF7C2FF88
:10C6D0001B4B1A781B4B1B789B0043EA02131A4A28
:10C6E00012781A43D2B209212820FFF7B3FF0022A3
:10C6F00007212820FFF7AEFF012240212820FFF765
:10C70000A9FF01223B212820FFF7A4FF0F4B3E2168
:10C710001A782820FFF79EFF0D4B3D211A7828201C
:10C72000BDE80840FFF796BFEC3A002088380020AB
:10C73000043B00208938002084380020243A00205F
:10C74000243C00208638002085380020253C00202D
:10C750008738002070B50C4C05460E460146204631
:10C7600002F023FE3146204602F01EFD0021204645
:10C7700002F025FE01222946204602F013FE204643
:10C7800002F024FDC0B270BD08400020F8B5044698
:10C790000F4601460F4815461E4602F006FE394672
:10C7A0000C4802F001FD00210A4802F008FE214673
:10C7B0002A46084802F0F6FD0024064802F0F1FC83
:10C7C000651C30B1034802F001FDE4B230552C463F
:10C7D000F3E7F8BD0840002013B5082204466B4675
:10C7E00020212820FFF7D2FF9DF801209DF800307E
:10C7F00043EA022323809DF803209DF8023043EA98
:10C80000022363809DF805209DF8043043EA02234B
:10C81000A3809DF807209DF8063043EA0223E380B9
:10C8200002B010BD2DE9F74F05468B468648874973
:10C8300008F098FB0121112007F076F84FF47A6098
:10C8400006F04DFF002207212820FFF703FF0022FA
:10C850003D212820FFF7FEFE192006F040FF0C22A4
:10C860003D212820FFF7F6FE00264FF48077B246E0
:10C8700034466B46062208212820FFF787FF9DF8E3
:10C8800001209DF8003043EA022306FA83F69DF862
:10C8900003209DF8023043EA02230AFA83FA9DF846
:10C8A00005209DF80430013F43EA02231420BFB263
:10C8B00004FA83F406F013FF002FDAD14FF48073EB
:10C8C00096FBF3F607EE906A9AFBF3FAF8EEE77A36
:10C8D00094FBF3F4C5ED007A07EE90AA002CF8EE75
:10C8E000E77ACCBFA4F57A7404F57A74C5ED017AC1
:10C8F00007EE904AF8EEE77A4FF48077C5ED027ABA
:10C900000025A946A8466B46062214212820FFF7D9
:10C910003DFF9DF801209DF8003043EA022305FA0F
:10C9200083F59DF803209DF8023043EA022309FABB
:10C9300083F99DF805209DF80430013F43EA022366
:10C940002320BFB208FA83F806F0C9FE002FDAD11F
:10C950004FF4807395FBF3F507EE905A99FBF3F9CA
:10C960009FED3B7A98FBF3F8F8EEE77A3A4667EEEC
:10C97000877A3D21CBED007A07EE909AF8EEE77AC0
:10C98000282067EE877ACBED017A07EE908AF8EEE1
:10C99000E77A67EE877ACBED027AFFF75BFE192024
:10C9A00006F09DFEF2B255212820FFF753FEC6F394
:10C9B000072256212820FFF74DFE5FFA8AF2572101
:10C9C0002820FFF747FECAF3072258212820FFF747
:10C9D00041FEE2B259212820FFF73CFEC4F30722B2
:10C9E0005A212820FFF736FEEAB261212820FFF7FE
:10C9F00031FEC5F3072262212820FFF72BFE5FFAE4
:10CA000089F263212820FFF725FEC9F3072264215C
:10CA10002820FFF71FFE5FFA88F265212820FFF724
:10CA200019FEC8F3072266212820FFF713FE094BE1
:10CA30003D211A782820FFF70DFE3946112006F017
:10CA400073FF03B0BDE8F08F443A0020258F020049
:10CA50000000803D873800202DE9F04188B0002398
:10CA6000804677497748ADF80830ADF80A30ADF820
:10CA70000C30ADF81030ADF81230ADF8143008F0CD
:10CA800071FA0A24112006F061FF4FF47A7006F063
:10CA900026FE013CF6D1224607212820FFF7DAFDC9
:10CAA00022463D212820FFF7D5FD192006F017FE6C
:10CAB0000C223D212820FFF7CDFD4FF480776B46F7
:10CAC00006220E212820FFF761FE9DF801209DF827
:10CAD000003043EA0223ADF818309DF803209DF89A
:10CAE000023043EA0223ADF81A309DF805209DF884
:10CAF000043043EA0223ADF81C30002306AA02A941
:10CB000032F8132031F9134010B28442B8BF21F833
:10CB1000132004A931F913408442C8BF21F813201F
:10CB20000133032BEAD1013F3720BFB206F0D7FD16
:10CB3000002FC4D1BDF91030BDF90860BDF90A500D
:10CB4000BDF90C4002221E4496FBF2F607EE906AF5
:10CB5000BDF91230F8EEE77A1D44BDF9143095FBAB
:10CB6000F2F517EE900A234493FBF2F408F080FFED
:10CB700031A3D3E9002309F0F9F809F0DFF907EE52
:10CB8000905AF8EEE77AC8F8000017EE900A08F01D
:10CB90006FFF29A3D3E9002309F0E8F809F0CEF9E3
:10CBA00007EE904AF8EEE77AC8F8040017EE900A0C
:10CBB00008F05EFF20A3D3E9002309F0D7F809F0BD
:10CBC000BDF93A46C8F808003D212820FFF742FD8C
:10CBD000192006F084FDF2B25B212820FFF73AFD10
:10CBE000C6F307225C212820FFF734FDEAB25D215D
:10CBF0002820FFF72FFDC5F307225E212820FFF72D
:10CC000029FDE2B25F212820FFF724FDC4F30722AB
:10CC100060212820FFF71EFD0B4B3D211A782820AC
:10CC2000FFF718FD0949074808F09CF908B0BDE86E
:10CC3000F08100BFAFF300809A9999999999F93FD3
:10CC40002D8F0200443A002087380020358F0200E3
:10CC500010B57748774C02F0EBFA7749744802F048
:10CC600031FB4FF4FA6006F03AFD4FF4E1317348BE
:10CC700008F03EFA724802F0EDF801211F2006F09C
:10CC800031FE06F021FD6F4B01211860112006F0E6
:10CC900029FE01216C4801F00FFB002201216A48A6
:10CCA00001F01AFA6949684801F0E0FA68496648F3
:10CCB00001F03CFB6749644801F03BFB664967486B
:10CCC00001F034FF6649654801F02EFF634801F02A
:10CCD0002FFF5B4802F0BEF8FFF74EFC00216148D1
:10CCE00000F00EFA604B0021186806F0FBFD20688A
:10CCF000012106F0F7FD0121206806F015FE4FF432
:10CD00007A7006F0ECFC5949594808F02BF90021DB
:10CD10002820FFF71FFD04464FF47A7006F0DFFC71
:10CD200001212820FFF716FD4FF47A7006F0D7FC9A
:10CD300002212820FFF70EFD4FF47A7006F0CFFC99
:10CD400003212820FFF706FD4FF47A7006F0C7FC98
:10CD5000A02C62D14749464808F004F90421282054
:10CD6000FFF7F8FC05212820FFF7F4FC0621282016
:10CD7000FFF7F0FC36212820FFF7ECFC0446E00723
:10CD80004CBF3D493D493A4808F0ECF8A1074CBF7B
:10CD90003B493C49364808F0E5F862074CBF3A4940
:10CDA0003A49334808F0DEF823074CBF384939497F
:10CDB0002F4808F0D7F84FF47A7006F090FC4FF443
:10CDC0007A7006F08CFC34493448FFF72BFD4FF4A1
:10CDD0007A7006F084FC3248FFF73EFE4FF47A701A
:10CDE00006F07DFC35212820FFF7B4FC2D490446D0
:10CDF0001F4808F0B7F82C491D4808F0A4F8C4F300
:10CE000087110A221A4808F028F9FFF73BFC274946
:10CE10001748BDE8104008F0A5B82549144808F0A7
:10CE200092F810222146124808F0EBF8FEE700BF06
:10CE30000840002090380020801A0600544200204C
:10CE4000343A0020103C00202C3C0020698F020066
:10CE500039C5010019C501004B8F0200E83B0020D5
:10CE60005F8F02007C3E00208C3800206E8F020015
:10CE7000443A0020758F0200898F0200A78F0200BC
:10CE8000C58F0200E28F0200FF8F0200199002009E
:10CE90003390020047900200F43A0020DC3B00206F
:10CEA000283A00205B900200849002009F900200CC
:10CEB000C69002001FB5164C0A2006F010FC15485B
:10CEC00002F084FB2046FFF787FC13482388038089
:10CED00063884380A3888380E388C38001A90023FB
:10CEE000082202930193CDF80B3002F011FC01A847
:10CEF0000AF01DF8094C024601A9204601F080FF06
:10CF000001220749204601F07BFF04B010BD00BF9D
:10CF1000EE3A0020083B00201C3C0020443A002050
:10CF20001EAB020072DF704773DF704774DF70471B
:10CF30000022C2770270704770B51D46C37F0E464F
:10CF40001146EA181D2A04460EDC18446A1CE254F5
:10CF5000023000F8016C2A4609F0DDF8E27F023267
:10CF6000AB18E377012070BD002070BD2DE9F041C2
:10CF7000002688B007460D4601EBC20834464545F9
:10CF800016D0284600F0CDFF102802D0802809D006
:10CF90000CE008AA631C02EB44042A8824F8202C25
:10CFA000DCB203E00EB1002017E06E680835E6E75A
:10CFB00014B966B9012010E0630003F0FE036A466D
:10CFC00003213846FFF7B8FF0028F2D1EBE7102322
:10CFD000324607213846FFF7AFFF08B0BDE8F081C1
:10CFE00013B50831044603C901228DE803006946E0
:10CFF0002046FFF7BBFF02B010BD000010B588B09F
:10D000006946044620220A4801F044F9E27F1318D9
:10D010001D2BC4BFC2F11D02D0B20346CCBF0821F4
:10D0200009216A462046FFF787FF08B010BD00BF00
:10D030002C3C002013B50446064801F03AF902AA38
:10D04000012302F8010D0A212046FFF775FF02B007
:10D0500010BD00BF2C3C002007B502AA012302F836
:10D06000011D1946FFF768FF03B05DF804FB08B522
:10D070000346FFF75DFF012183F8211020210022E4
:10D080009984F421D98483F820201E2183F822205A
:10D0900019859A855A851A63184608BD0185704717
:10D0A0008184C284704780F82110704770B50446AF
:10D0B00086B00E46154600211822684609F051F840
:10D0C00094F820308DF800306846ADF81060ADF867
:10D0D0001250FFF729FF68B9084801F04BF9A28DFB
:10D0E00095424FF0010094BF521B921A84F822001F
:10D0F000A28500E0002006B070BD00BF2C3C0020DF
:10D1000038B50C4D8185418595F8A332C17F05F571
:10D1100021720446FFF706FF50B92846FA2101F0B4
:10D12000CEF8228DA18C2046BDE83840FFF7BEBF67
:10D13000002038BD2C3C002008B5FFF7F7FE20B9D1
:10D14000034801F028F9012008BD002008BD00BFF8
:10D150002C3C002038B50B88112B044612D01B2B19
:10D1600023D0102B4FD18D7D012D4CD1002380F881
:10D170002230254801F00FF929462348BDE8384000
:10D1800001F015B98988204800F0D0FB01283AD178
:10D1900000211D4801F00BF994F821309BB3618DFB
:10D1A0002046BDE83840FFF7ABBF0B7A5BBB80F889
:10D1B00022304FF4FA71144801F081F8628D0AB1FF
:10D1C000A28D2AB1E18C2046BDE83840FFF76EBF42
:10D1D0000D4801F0E0F8236BABB107F0DBFB012851
:10D1E0004FF0100002D108F077FF01E007F0FFFDDB
:10D1F000226B426000230222027243720360BDE888
:10D20000384001F0E1BE38BD2C3C002008B507F0E5
:10D21000C1FB01284FF0100003D1BDE8084008F021
:10D220005BBFBDE8084007F0E2BD10220280182273
:10D23000428000224260826070470000014800F096
:10D240002EBB00BF043F002037B50B888C88102B05
:10D25000054602D0112B12D02EE02146174800F0CF
:10D2600065FB022828D16B6833B3FFF7CFFF00229C
:10D2700069680260027203464160012210E02146A3
:10D280000E4800F053FB022816D1AB68A3B1FFF79C
:10D29000BDFF00220260AA684260012203460272BA
:10D2A0005A7202AA42F8044D1068D860184603B0BA
:10D2B000BDE8304001F088BE03B030BD2C3C0020FA
:10D2C000A2DF7047A3DF7047A4DF7047A5DF704778
:10D2D000A6DF7047704710B5044608F0D6F8204620
:10D2E00010BD00004FF4007282810C4A1278427423
:10D2F000027401214FF00102002361F34202037125
:10D3000043718360C381C3618382C3824383038388
:10D310008274036243628362C3627047E6900200D4
:10D3200013B504468DE806002346064943F8301B32
:10D330009DE8030083E805002046FFF7D3FF204661
:10D3400002B010BDF4900200C06970470123037160
:10D3500070474171704781817047837C19B1818129
:10D360006FF3000301E043F001038374704701741D
:10D3700042747047816270470A1C837C416218BF07
:10D38000012262F30413837470478160704701F1D6
:10D390001403024603CB1060516010467047000032
:10D3A00070B5534B04461B68C36100F1300696B05C
:10D3B000304600F0C4FD637913F0320101BF227CD6
:10D3C00061F3030261F30712227413F00C0101BF31
:10D3D000627C61F3030261F30712627413F030059B
:10D3E0000DD04FF00003012262F342038DF80630A6
:10D3F000404B1B788DF80430237C8DF805301C22BF
:10D4000000210FA808F0ADFE63798DF83C300023B1
:10D410000DB91A4600E001AAADF8083014924FF099
:10D420000003012262F34203A0688DF80A30237CD6
:10D430008DF8083058B103784BB1109009F077FDA2
:10D4400002AB80B2ADF84400ADF84600139314224D
:10D4500000210DEB020008F084FE04F11003069396
:10D46000A37C0596DB0754BFA3890023ADF81C30CD
:10D47000A389ADF8203005AA04F114030FA90020F8
:10D48000FFF71EFF054668BBE37B2BB30346012273
:10D4900062F342038DF80E30237CADF80C008DF85A
:10D4A0000C30154B18680490142229460AA808F07D
:10D4B00058FE0223ADF83030ADF8343004AB0A9397
:10D4C00003AB0B930DF1020204F10E030AA92846E7
:10D4D0000E93FFF7F7FE40B925792DB9214607488D
:10D4E00000F07AFB284600E0002016B070BD00BFB7
:10D4F000283C0020E6900200E89002007C3C0020DE
:10D500000B88502B73B505460C4619D0512B52D1C0
:10D510000A89838A9A424ED18B79022B03D1436ABE
:10D520000BB108319847A379012B44D12B6A002B0A
:10D5300041D004F10801284602B0BDE87040184708
:10D54000866A3EB1CA88838A9A4203D1CB890A8A05
:10D550001231B047E2882B8B9A422CD1EB6A33B15F
:10D56000628AADF80420BDF8041028469847134895
:10D5700000F0E5FEF8B107F00DFA01284FF01000B9
:10D5800002D108F0A9FD01E007F031FC00220260A1
:10D590000B4A4260052202720122427202AAA1884D
:10D5A00042F8041D03461068D860184602B0BDE872
:10D5B000704001F009BD02B070BD00BF2C3C0020DE
:10D5C00065E4010013B584890191A24228BF224677
:10D5D00000230093818AADF800204FF6FF706A4661
:10D5E000FFF772FE10B9BDF8000000E0184602B067
:10D5F00010BD38B5054608460C4609F098FC214692
:10D6000082B22846BDE83840FFF7DCBF07B502AB61
:10D61000022223F8021D1946FFF7D4FF03B05DF87C
:10D6200004FB00007FB54379DB06064604D51248AB
:10D6300000F064FE044608B900241AE00223002525
:10D6400002950D48ADF808300DF10603039300F084
:10D6500073FE02AA318BFFF739FE43F20143984271
:10D6600002D1ADF8065000E018B99DF8064004F06C
:10D670000104204604B070BD2C3C0020F0B5437975
:10D6800003F0100387B006460F4603F0FF05002B9A
:10D690003AD08489944228BF1446FFF7C3FF054659
:10D6A00068B38CB31A4800F047FE0146184800F0F2
:10D6B0004BF948B3142C23464FF0000128BF142324
:10D6C000102202A8ADF8063008F04BFD01238DF8BA
:10D6D0000A30B38AADF808300D4805970DF10603FE
:10D6E000049300F029FE02A9FFF7F2FD28B9BDF866
:10D6F0000630E41AA4B21F44D3E7002504E0224612
:10D7000039463046FFF75EFF284607B0F0BD00BF40
:10D710002C3C002096DF704798DF704710B5044618
:10D7200007F038F90128204603D1BDE8104008F081
:10D73000D3BCBDE8104007F05ABB0023838270477A
:10D74000806900F09CB87FB50D4604462B88C988D7
:10D75000382B39D0392B03D0362B40F08E8071E036
:10D76000AB7B012B40F08980C369002B00F08580E2
:10D7700090F820102A8A19B31046FFF7CFFF06460B
:10D7800000287AD02A8A05F1120108F0C4FC18207A
:10D79000FFF7C4FFE2694260042202720322427270
:10D7A0002A8A066003920194029601AA034603CADC
:10D7B000D860196110685861184601F005FC5CE0FA
:10D7C00005F11201984758E011B104F1240052E02C
:10D7D00000F124066A8A304601F069FCAB7B012B1C
:10D7E000F3D0042B49D1238EA28A112B01D8C3B1C7
:10D7F00000E012230021019104218DF80410ADF8FE
:10D800000620298A6A8AADF80A300A44E36AA069C8
:10D81000ADF80820039300F032F801A9FFF77CFF70
:10D8200027E00293039305238DF80430A069ADF837
:10D83000062001238DF8053000F021F801A9FFF73B
:10D840006BFF17E00029C0D100F124062A8A05F1F8
:10D850001201304601F02BFC238E5BB12B8A122B78
:10D8600008D9A06900F00BF8628EA18A92B2FFF786
:10D8700051FF10B1304601F032FC04B070BD808819
:10D88000704710B50446043001F0CCFB012323801F
:10D890004FF6FF73638000232375204610BD017D82
:10D8A00010B5044621B9043001F0C4FB01232375EF
:10D8B00010BD007D70470B88322B10B5044611D087
:10D8C000332B1BD0302B26D1CB8833B98B8923B196
:10D8D0000A220C31201D01F0EAFB201DBDE810409A
:10D8E00001F0FDBBCB88002BF7D18A89002AF4D048
:10D8F000013A02EB820252000C320AE0CB88002B84
:10D90000EBD18A89002AE8D0013A02EB42025200A8
:10D91000083292B2DDE710BD62DF704710B55022C9
:10D920000446002108F01DFC204610BD00EB01114B
:10D930004878704701EB021252F8021F016091888B
:10D940009279818082717047042908B50CD800EB68
:10D950000110C06848B100236622194606F0C4FBD6
:10D96000003018BF012008BD002008BDF0B587B009
:10D9700004AC16461F460D4620464FF4285100F0D1
:10D98000C5FA8DE8C0004FF6FF730393012302939D
:10D9900094E80C002946024800F05CF807B0F0BD9E
:10D9A0007C3C002073B50A88102A03460D468888FF
:10D9B00004D0112A1BD0012A35D121E00201012116
:10D9C00099549C18AB7D637055F8082FC4F8022059
:10D9D000AA88E280AA7922720DF10701FFF79CFF65
:10D9E0009DF80710084606F083FAE0601BE000018E
:10D9F00000251C181D54E06806F026FCE56012E0C6
:10DA000003EB0013DA6872B100261C462A7AF3B2DF
:10DA10009A4206F1010606D900231A461946E06823
:10DA200006F070FAF2E702B070BD95DF704738B5C6
:10DA30000446F82500F5F87001F0F4FA2A460021B2
:10DA4000204608F08EFB2A460021601908F089FB69
:10DA5000204638BD7FB500F5F8758DE80C00BDF89F
:10DA60002830ADF80C300E46BDF82C30ADF80E3035
:10DA70000121284601F0DEFABDF824200899284645
:10DA800001F0E7FA03AA69463046FFF7CEFF30B946
:10DA90004FF4FA71284601F0E1FA044600E0002450
:10DAA000284601F0D0FA24EAE47080B204B070BDD8
:10DAB0002DE9F84F0E888F88A6F11003012B04463C
:10DAC0000D4602D84FF0000801E0002310E0227854
:10DAD0005FFA88F39A42F8D99B002344112E5868C4
:10DAE00003680CBF1B685B68984708F10108EEE704
:10DAF00094F8542003F10108DBB29A4207D9163397
:10DB0000294654F82300FFF7FBFC4346F0E7A6F153
:10DB100036091FFA89F94FF0010808FA09F808F0E8
:10DB20000D0804F5A67B4FF0000A94F84C319A4595
:10DB300017DA5BF8040FFFF703FE87420ED1B9F145
:10DB4000030F0BD8B8F1000F08D0DBF80000AB8949
:10DB5000828A9A4202D12946FFF7F5FD0AF1010AAD
:10DB6000E3E7112E26D1002594F8F820EBB29A4273
:10DB700001D8002618E004EB8303D3F8FC00838867
:10DB8000BB4202D103681B6898470135ECE704EB00
:10DB90008505D5F85001FFF7D3FD874203D1D5F8AD
:10DBA0005001FFF7CAFD013694F84C31F5B2AB4293
:10DBB000EDD80FE0352E0DD1AB895BB104F5F874CB
:10DBC000EA896969204601F072FA2046BDE8F84FFB
:10DBD00001F085BABDE8F88F90F85430282B1FBFAC
:10DBE0005A1C163380F8542040F8231014BF01202B
:10DBF000002070470378132B9FBF5A1C027000EB64
:10DC00008300416094BF0120002070478ADF704785
:10DC100010B5044606F0BEFE0128204603D1BDE83B
:10DC2000104008F059BABDE8104007F0E0B8000015
:10DC3000002330B501220370C370838003738360B7
:10DC400003614361054B427080220446827000F1FB
:10DC500018050FCB85E80F00204630BDFC90020070
:10DC600010B5044681841830FFF7D0FF28B9044866
:10DC700000F080FB0120207010BD002010BD00BF0F
:10DC80002C3C002038B59DF81450C2B148780C786F
:10DC9000984204D1013C0231E4B206D111E0E043E4
:10DCA00002440134D2B22144EFE715B1AC4228BF9F
:10DCB0002C462246049808F02EFA204638BD10461D
:10DCC00038BD084638BD37B50C7A9DF81850093173
:10DCD0008DE828001346E208FFF7D4FF03B030BDFB
:10DCE0002DE9F04F8FB002AC80462046894684E88B
:10DCF0000C0000F016F9C0B2102807D102238DF8ED
:10DD0000143003238DF81530274606E006238DF8DE
:10DD10001430039F07238DF815300026C508B2463E
:10DD20001F22002106A808F01CFA05AB4946F25C48
:10DD3000CDF800A006AB4046FFF7C5FF0DF1180B6C
:10DD400004465CB12A463946584608F0D5F908B968
:10DD5000012007E0641BAB44E4B2F2E70136022E77
:10DD6000DED120460FB0BDE8F08F00002DE9FF4165
:10DD70000B88112B04460D4669D002D8102B59D0C0
:10DD800087E01B2B75D01D2B40F0838090F902207B
:10DD900091F90F309A427CDC037B01F1080613B93C
:10DDA000E378BBB925E04FF00008237B5FFA88F7E2
:10DDB000BB420BD9A36803EBC7030CCB314620460B
:10DDC000FFF78EFF08F101080028EED0237BBB424D
:10DDD000E6D15EE002230093FF2203AB31462046EA
:10DDE000FFF771FF002854D0A288BDF80C309A428A
:10DDF0004FD12820FFF70CFF30350746034656F871
:10DE0000042B43F8042BAE42F9D12369002B40D0F8
:10DE10001020FFF7FDFE22694260032202720122F8
:10DE2000427204AA076042F8047D03461068D86075
:10DE300018462CE08B7D022B2BD100230370164853
:10DE400000F0A9FA0121144800F0B1FA21E0898814
:10DE50001148FFF76BFD02281BD12178C9B90E4884
:10DE600000F0A5FA6378A3B1A18C2046FFF7F8FE75
:10DE70000FE00D7A022D0CD1436953B11020FFF74A
:10DE8000C7FE61694160002202600572427201F0C2
:10DE90009BF804B0BDE8F0812C3C0020A0DF704767
:10DEA0007047000037B500F108050446284600F029
:10DEB00046F829460DF106020120FFF7EFFF05465F
:10DEC00028B9044B04481C602146FFF793FE2846FE
:10DED00003B030BD283C00207C3C002013B5044634
:10DEE0008DE806002346064943F8081B9DE8030019
:10DEF00083E8050000232046A38002B010BD00BFC8
:10DF00001491020063DF704764DF70470123837060
:10DF100000230180436070470023837003804160C9
:10DF200070478378012B06D0426832B9012B8CBF31
:10DF3000802000207047102070478020704708B56F
:10DF40008378024653B9406840B1911CFFF7DAFF6D
:10DF500010205168BDE80840FFF7D6BF08BD52DF6A
:10DF6000704775DF704776DF704777DF704778DF7F
:10DF700070477ADF70477CDF70477DDF70477FDF57
:10DF8000704786DF7047A9DF7047AADF704760DF00
:10DF9000704761DF704710DF7047132005F0E8BC61
:10DFA00037B50E4C0E4DD4F8000300234FF0FF326E
:10DFB000194606F099F80028F5D001A8FFF7CFFF21
:10DFC00010B10528F9D1EEE70198831E012BF4D892
:10DFD000002DF2D005F070FCEFE700BF2C3C0020D4
:10DFE000B938020010B5044606F0D4FC01282046DA
:10DFF00003D1BDE8104008F06FB8BDE8104006F04E
:10E00000F6BE10B5044606F0C5FC0128204603D133
:10E01000BDE8104008F068B8BDE8104006F0F6BE54
:10E0200070B50446FFF77AFC04F15000FFF7FFFCDF
:10E0300004F51470FFF71BF804F52170FEF778FF64
:10E0400004F52970FFF7F4FD04F53370FFF7EDF8E0
:10E0500004F53670FFF715FC04F5437000F0BCFCC6
:10E060000123002184F8F03284F808334FF6FF765C
:10E0700010251823A4F8F43284F8F112C4F8FC1225
:10E08000C4F80013C4F8041384F8F812A4F8546315
:10E0900084F85613A4F8F252A4F8F612C4F85813F0
:10E0A000C4F85C13502204F2663008F05AF80322D8
:10E0B0004FF0010362F3061384F86033072384F8FA
:10E0C000613384F86253A4F8786384F8632384F896
:10E0D0006423204670BD000070B5594C80F8F012E2
:10E0E00090B0054680F8F12220680590002105A82F
:10E0F000FFF751FF002840F0A080142201460BA832
:10E1000008F02FF80A23ADF82C309DF8383043F092
:10E1100001038DF838304FF430630F9395F8F032E7
:10E120008DF8343095F8F1328DF8363010A9002B87
:10E13000444B41F8283D14BF042200220BA88DF85F
:10E140003520FFF724FF002877D1C8230A90ADF8C7
:10E150002A30B5F8F232ADF8243009A8B5F8F43217
:10E16000ADF82630FFF705FF002866D110A8237907
:10E1700000F8303D0B223449FFF7FDFE044600282D
:10E180005AD1FFF7F4FE0446002855D1FFF7EDFE03
:10E19000002852D105F5437000F040FC95F8F132AB
:10E1A0001BB105F53370FFF749F803220021012068
:10E1B00005F080FEC5F8FC0208B904203DE000240B
:10E1C00007AB032601934FF4C06223461F49039413
:10E1D000029400961E4806F095F83246214601202A
:10E1E00005F068FEC5F800030028E6D008ABC82299
:10E1F000184901930394234602940096164806F0AA
:10E2000081F800F0F1FE154BC02283F816234FF47D
:10E2100080021A60124B00934FF480712346012252
:10E22000204606F09DFCC5F804030E4801F08AFA6A
:10E230000D490C4801F0ACFA204610B070BD00BF8B
:10E240002091020080380020409102004C91020091
:10E250009DE7010053910200A1DF010000E100E011
:10E260009BDF0100C44000205A91020037B5084BE3
:10E2700002AC1B7904F8043D08460D4608F057FE31
:10E28000294682B22046FFF776FE03B030BD00BFBC
:10E290002091020007B5084602A921F8022DFFF7D8
:10E2A0006CFE10B99DF8060000E0002003B05DF898
:10E2B00004FB90F9F802704780F80813704773B5B3
:10E2C0000446D0F804030E4606F07CFD0023054604
:10E2D000B6024FF47A720093B6FBF2F20421D4F83E
:10E2E000040306F05BFC3DB900952B462A4603214A
:10E2F000D4F8040306F052FC02B070BDB0F8540329
:10E300004FF6FF73C01A18BF01207047B0F85403CE
:10E3100008B54FF6FF73984206D01321FFF723FE8E
:10E32000B0FA80F0400908BD012008BDC0F85813BC
:10E330007047C0F85C137047B0F85403704790F80A
:10E340005603704710B5B1F854230446FFF7F2FAAC
:10E35000204610BD10B5064C0021D4F8000305F08E
:10E360009FFED4F8FC020021BDE8104005F098BEE5
:10E370002C3C002090F8083313B553B1D0F8044377
:10E3800006F0D6F80023024600930121204606F04D
:10E3900005FC02B010BD07B5002300931A46032107
:10E3A000D0F8040306F0FAFB03B05DF804FB90F824
:10E3B000083313B1132005F0B7BA704710B58AB00F
:10E3C00004460A4603A8084908F052FD00230093BA
:10E3D00004F26632502303A9044801F01FFA00300A
:10E3E00018BF01200AB010BD69910200C44000208E
:10E3F00070B5B0F878234FF6FF739A428AB005469D
:10E4000029D00AAE002126F81E1D03233246B0F89B
:10E410005403FFF7BAFDBDF80A00FFF7E3FD044619
:10E42000C8B1014603233246B5F85403FFF7ADFDEA
:10E4300070B9B5F87823094903A808F019FD7022CE
:10E440000092BDF80A300648224603A901F010FAEE
:10E450002046FFF7D6FD0AB070BD00BF69910200EB
:10E46000C44000200148FFF7C3BF00BF2C3C002080
:10E4700037B50C4690F8561361B901466846FFF768
:10E4800061FF009B2360BDF80430A3809DF8063037
:10E49000A37119E000F2AE310D6825608D88A5806A
:10E4A0008D79A57100F29E3454F8045B42F8045B48
:10E4B0008C42F9D100F2663200F2823052F8041B2D
:10E4C00043F8041B8242F9D103B030BD10B5054CAE
:10E4D0002046FFF7A5FD2046034A0449BDE8104049
:10E4E00007F07CBD2C3C00208038002055E801005E
:10E4F00070B58EB00A460646214907A808F0B8FC58
:10E50000012207A901A801F0FFF901A801F00EFA04
:10E5100008B9002424E001A801F02FFAB0F170043A
:10E52000F7D02046FFF75EFD05460028F1D07021A8
:10E5300001A801F03CFA2246294601A801F064FA3C
:10E5400050B1A2B203232946B6F85403FFF71BFDCE
:10E55000B0FA80F4640900E004462846FFF751FD54
:10E5600001A801F0E8F934B9234622462146B6F85D
:10E570005403FFF708FD01A801F0EAF90EB070BDE1
:10E58000699102002DE9F04104460D4688B08F885C
:10E59000FFF708FA294604F51470FEF7DBFD04F5D1
:10E5A00029702946FFF7E2FBB4F854032B88874211
:10E5B00006D0102B02D01B2B40F0C580132B01E09E
:10E5C000132B68D005D8112B40D03BD8102B13D07B
:10E5D000B9E0192B00F09A8002D8142B7BD0B2E05E
:10E5E0001A2B00F08A80522B40F0AD8000231A468F
:10E5F0001946FFF7C8FCA6E0AB7D012B40F0A380D5
:10E600002B8BB4F8F222A888A4F854039A42A4F8F9
:10E61000F63200F2B880B4F8F422934200F2B380EC
:10E62000D4F85833002B00F08E801020FFF7DAFC6E
:10E630000022D4F85813026002720122034641609E
:10E64000427276E02B89A4F8F6327CE094F85633D7
:10E6500013B12046FFF7CCFED4F85C33ABB11020E9
:10E66000FFF7C0FC00220260D4F85C234260012264
:10E670000272427208AAB4F8541342F8201D0346ED
:10E680001068D860184600F09FFC4FF6FF73A4F89E
:10E690005433002337E004F266365022002130461E
:10E6A00007F05FFD4FF6FF73A4F8783320220021B6
:10E6B000684607F056FD04F28233049304F29E3359
:10E6C000059304F558726B460021A8880096FFF761
:10E6D00056FCC0B35DE0298A2046FFF76FFE034673
:10E6E000A8882BB1002304F29E3204F2663101E0C7
:10E6F0001A461946FFF745FC25E0B4F87813204682
:10E70000FFF7F6FE012384F856331CE095F80880E5
:10E71000B8F1000F17D1012684F856631020FFF7D7
:10E7200061FC1D4A426005220346C0F80080027267
:10E73000467208AAB4F8541342F8201D1068D86035
:10E74000184600F041FC94F8F13263B1B4F8543348
:10E75000BB4203D14FF6FF739F4204D1294604F513
:10E760003370FEF771FD04F536763046FFF7A1F8F9
:10E7700018B129463046FFF79EF8294604F15000AB
:10E78000FFF796F905E00021FFF7EBFB00283FF4C7
:10E7900047AF08B0BDE8F08149E8010030B50E4D43
:10E7A00097B000234FF0FF321946D5F8FC0205F070
:10E7B0009BFC0028F5D054240DF1020101A8ADF80E
:10E7C0000240FFF7E6FB20B901A90348FFF7DAFE94
:10E7D000F2E70528E5D0EFE72C3C002010B596B015
:10E7E0000446B0F87823174907A808F041FB202217
:10E7F00000210EA807F0B5FC20230EAAB4F854138C
:10E800002046FFF7B3F8022207A901A801F07CF81F
:10E8100001A801F08BF880B1502204F2663101A802
:10E8200001F058F89DF8383023B120220EA901A834
:10E8300001F050F801A801F07EF801A801F088F875
:10E8400016B010BD699102000148FFF7C7BF00BFB5
:10E850002C3C002010B5054BC0F80C33044600F5E5
:10E860004770FEF737FD204610BD00BF7C920200C6
:10E8700044DF704745DF7047A8DF7047AADF704765
:10E8800011DF704713DF704770B586B00E880546FC
:10E890000C46014602A8FEF77AFDBDF80830B342E7
:10E8A00040F08680A379043B022B40F28180102245
:10E8B000002102A807F055FC022328468DF80830F5
:10E8C000FEF7B0FE50B940F2FD133A48ADF80C30F7
:10E8D000FFF732FD02A9FFF7CFFF69E000263548B8
:10E8E000ADF80C60FFF728FD02A9FFF7C5FF257BF7
:10E8F000012D5DD13E22314606AC2F4807F031FC98
:10E90000082324F8123D2B48FFF716FD22462B461C
:10E910002A492B4CFFF7B2FF27492648294B2A4AA0
:10E92000FFF7A6FD24484FF6FF7110F8012B82EA8D
:10E93000112383EA13139AB243EA012383EA0233D1
:10E9400083EA4213A04299B2EFD11B4B1948998731
:10E95000FFF7DCFC1D48FEF7EFFBFF20FFF78AFF07
:10E96000B120FFF785FF18BBFFF78AFF00BB184AED
:10E97000136823F001031360164B4FF48002C3F8B1
:10E9800080210124420900F01F012032013004FAE5
:10E9900001F1272843F82210F4D14FF010235869D1
:10E9A000FFF770FF20B980F31488586900F0AEFAC1
:10E9B00006B070BD2C3C0020807F0020B47F00207A
:10E9C000BC7F0020987F0020877F00207C3E0020B5
:10E9D00010E000E000E100E073B505460C49684630
:10E9E000FFF79AFA2E469DE806002846FFF776FACA
:10E9F000084B46F8103B68460749FFF78DFA9DE83B
:10EA000006003046FEF78CFC284602B070BD00BF01
:10EA1000549202007C9202006492020030B59FB0D2
:10EA20000446FFF73FFA00284FD110AD2949284688
:10EA3000FFF772FA95E8060002A8FEF771FC02A83B
:10EA4000FEF784FC042102A8FEF783FC02A814212F
:10EA5000FEF781FC02A8FEF7A3FC88BB1034182146
:10EA60002046FEF776FC17212046FEF774FC204670
:10EA70001949FEF781FC2046FEF792FC00BB1749BE
:10EA80006846FFF749FA9DE806002846FEF748FC6D
:10EA900002A8FEF75BFC02212846FEF75AFC022181
:10EAA0002846FEF75AFC2846FEF77AFC044618B9B9
:10EAB00001212846FEF7AAFD2846FEF70BFC00E0E0
:10EAC000044602A8FEF706FC00E0044620461FB0FC
:10EAD00030BD00BF8892020089E8010098920200D0
:10EAE00037B5044641F60A016846FFF70FFA9DE87C
:10EAF00006002046FFF7F2F9074B2360074B23611E
:10EB000000236361A361E361054B2362054B6362EC
:10EB1000204603B030BD00BFC8920200A892020098
:10EB2000E2AC02004B8F0200016170474162704706
:10EB3000F0B591B00546FFF7B5F900283BD106F0D6
:10EB4000C7F9686106F092F90C35E86042F62426B0
:10EB50006F4655F8043F3BB331463846FFF7D6F9C8
:10EB600097E8060002A8FEF7DBFB02A8FEF7EEFB23
:10EB7000022102A8FEF7EDFB286808F0D8F981B25F
:10EB800002A8FEF7EAFB02A8FEF70AFC044620B141
:10EB900002A8FEF79FFB20460DE0296802A8FEF7B9
:10EBA00028FD02A8FEF796FB0136B6B242F62A23EC
:10EBB0009E42CED1002011B0F0BD07B503680122FE
:10EBC0009B690DF10701984710B19DF8070001E01E
:10EBD0004FF0FF3003B05DF804FBA0F11000FFF729
:10EBE000ECBF13B502AB026803F8011D146A1946A5
:10EBF0000122A04702B010BDA0F11000FFF7F1BF45
:10EC0000B0F89C0080B27047A0F11000FFF7F8BF89
:10EC100070B50D461646FEF797FB04463246294668
:10EC2000903006F0EFFCD4F8A83013B1BDE8704086
:10EC3000184770BD37B50546D0F8B00080B1002444
:10EC4000009423462246052105F0A8FFD5F8B4001C
:10EC5000C5F8B04020B103B0BDE8304006F090BC2C
:10EC600003B030BD903006F08BBCA0F11000FFF770
:10EC7000F9BF08B592B2903006F005FD08BD07B5A2
:10EC800090300DF1070106F018FD10B19DF8070056
:10EC900001E04FF0FF3003B05DF804FBA0F110007D
:10ECA000FFF7EDBF13B590F8AC3004464BB1064BFF
:10ECB0000093012203460A21002005F051FFC4F809
:10ECC000B00002B010BD00BF7DED0100F7B50446F5
:10ECD0000F4668461B49FFF71FF99DE806002046CE
:10ECE000FFF7FCF84FF47A73A361174B174900261E
:10ECF00003F1080240332361226068466661FFF732
:10ED00000BF99DE8060004F12000FEF709FB6846B8
:10ED10000F49FFF701F99DE8060004F15800FEF7DE
:10ED2000FFFA3A46012104F1900006F0F5FB204677
:10ED3000C4F8A86084F8AC60C4F8B060C4F8B460EB
:10ED400003B0F0BDE4920200F4920200D4920200FB
:10ED50004C93020010B586B01422044601A9D0F8E5
:10ED6000B40006F090FC024628B101A904F120008D
:10ED7000FEF784FC00E0012006B010BD08B506F0E7
:10ED80002DF8D0F8B4301BB1BDE80840FFF7E2BF62
:10ED900008BD2DE9F04190F8AC3096B21446054616
:10EDA0008846324613B1D0F8B40040B9414605F167
:10EDB0002000FEF763FC60B90020BDE8F08106F09A
:10EDC00021FCD5F8B420938912899BB29A42074658
:10EDD00002D02046BDE8F0812846FFF7BBFF00289F
:10EDE000EAD0BC42F5D9F21B92B208EB070105F15B
:10EDF0002000FEF743FC0028EBD11420BDE8F08191
:10EE0000A0F11000FFF7C5BF0C4B10B503603833FD
:10EE100004460361D0F8B40010B103685B689847FA
:10EE200004F1900006F056FB04F15800FEF752FA88
:10EE300004F12000FEF74EFA204610BDFC920200BD
:10EE400010B50446FFF7E0FF204606F01EFB204603
:10EE500010BD000070B50546903006F06DFB2846E9
:10EE6000FFF720F8044650BB05F12006102130467C
:10EE7000FEF76FFA224611213046FEF778FA114963
:10EE80003046FEF782FA3046FEF78AFA0446B0B9F9
:10EE9000583528460C21FEF75CFA28460A49FEF749
:10EEA00069FA214628461122FEF761FA28460749E9
:10EEB000FEF76BFA2846BDE87040FEF771BA2046AF
:10EEC00070BD00BF5C93020011EC01006093020072
:10EED000F0B50346186880F308885868FF2464B2C8
:10EEE000EFF30585002D01D1A646004725460646CD
:10EEF00021273FBAF0B40024002500260027F0B4F3
:10EF0000F92040B2004700BFF0BD00BFFFF7E0BFEF
:10EF100010B5044605F03EFD0128204603D1BDE8AA
:10EF2000104007F0E1B8BDE8104005F06FBF0000E9
:10EF300030B5244D85B000234FF0FF3203A9286877
:10EF400005F0D2F80028F6D00398037A4468052B20
:10EF50002ED8DFE803F0030617190A0F8089A047AF
:10EF600026E0017C8089A04722E0828A0169C0688E
:10EF7000A0471DE0437A052B1AD8DFE803F003050C
:10EF8000080C1014A04713E0C068A04710E0016906
:10EF9000C068A0470CE00C3007C8A04708E00C3060
:10EFA0000FC8A04704E0C36900930C300FC8A04706
:10EFB000039B186808B1FFF7ABFF0398FFF7A8FFA2
:10EFC000B9E700BFE43F002007B502A9002341F8DC
:10EFD000040D04486422006804F094FF03B05DF857
:10EFE00004FB00BFE43F00207FB500220421142071
:10EFF00004F060FF084B0949186005AA002301923C
:10F0000002220092039302934FF48062044805F0B9
:10F0100079F907B05DF804FBE43F00206493020037
:10F0200031EF010001220270002242608260C28141
:10F030008281704710B50446217019B90A2004F086
:10F0400057FF606010BD037813B9406805F0FCB845
:10F050007047002381608281C381704738B503788F
:10F0600005460C466BB90023A4024FF47A72194688
:10F07000B4FBF2F2686805F037F868B94FF0FF3476
:10F080000CE003220021012004F014FF6860002836
:10F09000E9D14FF0FF3038BDEC89A4B22B7823B111
:10F0A000686805F0D1F800236B60204638BD38B59C
:10F0B00085899542044628BF154619B12A468068BD
:10F0C00007F029F8A3682B44A360A3895B1BA381E5
:10F0D000E38915FA83F39BB2E381284638BD406883
:10F0E00020B100231A46194604F00CBF70470000F7
:10F0F00038B50025057329B90B4B0C4A0C48232160
:10F1000006F072FF01600B4951F82220027151F89C
:10F11000233083719DF8103051F82330437102235E
:10F12000C371856038BD00BFAA9302006D930200D1
:10F13000B8930200C4A9020007B5094B09490A485F
:10F140004FF080421A6000229A6002221A710D2349
:10F1500000930E220C23FFF7CBFF03B05DF804FBF6
:10F16000E83F002000300040F43F00202DE9F84344
:10F1700080460D46174601EB02090C464C45A4EBB0
:10F18000050609D0D8F8003014F8011B1B6840466A
:10F1900098470028F2D100E03E463046BDE8F883AB
:10F1A0007047203005F08BBF38B5437F0D462BB13B
:10F1B00000F16804204605F090FF08B1002038BD3A
:10F1C0002046294605F05EFF012038BD203005F0BD
:10F1D00068BF203005F079BF2DE9F0411E464FF49D
:10F1E0007A7300258360104B4560044640F8203B4D
:10F1F0001746884605F03BFF04F1680005F037FF2D
:10F200000A4B9DF81820C4F8108053F8222062762B
:10F210009DF81C20676153F82230A3762676657727
:10F220002046BDE8F08100BF20940200C4A902007E
:10F23000837E4FF0A04203F5E07330B5012140F228
:10F240000C64C17642F82340437E03F5E07342F834
:10F25000234003694FF0CC72C3F824250622C3F87B
:10F260000025827EC3F80825427EC3F80C25027E65
:10F2700053B2D2B202F01F055C09A94060340F4DB1
:10F28000002B45F8241006DA0D4B02F00F02134450
:10F2900040221A7606E003F1604303F56143402201
:10F2A00083F80023037E01215AB203F01F0301FA01
:10F2B00003F35209014941F8223030BD00E100E07A
:10F2C000FCEC00E0C37EABB103690022C3F800256B
:10F2D000094A914207D9094A914294BF4FF080618F
:10F2E0004FF0C86101E04FF0CC710622C3F824153D
:10F2F000C3F80025704700BFA086010090D003002E
:10F300002DE9F8430646894698461546B2B100F104
:10F310002007384605F0C1FE34690122C4F88895FB
:10F320002262C4F83475C4F838552260D4F84C31E0
:10F330003BB9D4F82431002BF8D002E01046BDE8E8
:10F34000F8830023C4F84C31D4F85C311BB9D4F8ED
:10F350002431002BF8D00023C4F85C310122B8F12D
:10F36000000F02D1D4F8243143B16261D4F80431E2
:10F37000002BFBD00023C4F8043107E0E261D4F88D
:10F380004831002BFBD00023C4F84831D4F8243195
:10F3900013B10023C4F82431D4F83C053066C0B260
:10F3A000BDE8F8830123FFF7ABBF10B5044680F832
:10F3B000B010683005F071FE0123637710BDF8B519
:10F3C000056900234377044690F8B030C5F88835C6
:10F3D000012668302E62C5F844050F4605F06FFE21
:10F3E0002369C5F848059E60D3F850211AB9D3F8AF
:10F3F0002421002AF8D00022C3F85021D3F860213C
:10F400001AB9D3F82421002AF8D00022C3F86021C9
:10F41000012217B9D3F8241141B15A61D3F804215C
:10F42000002AFBD00022C3F8042107E0DA61D3F8F8
:10F430004821002AFBD00022C3F84821D3F8240138
:10F4400068B10022C3F82421D3F8C404C3F8C4046B
:10F45000022804D0042814BF04200320F8BDF8BDFE
:10F460000121FFF7ACBF4369D3F8642170B50446AE
:10F4700082B10022012500F12006C3F8642105773E
:10F48000304605F00AFE63694022C3F83465C3F8CC
:10F4900038251D636369D3F86821D2B10025C3F80C
:10F4A000685104F16806012363772577304605F03B
:10F4B000F4FDD4F8B43003B19847657765693046F8
:10F4C000C5F8446505F0FBFD6369C5F848050122F0
:10F4D0005A636369D3F804215AB10022C3F80421A6
:10F4E000227F32B1D3F83C05D4F8B830206603B19E
:10F4F00098476369D3F8242142B10022C3F824213C
:10F50000D3F8D024C3F8D02401225A6170BD000082
:10F510000148FFF7A8BF00BF0840002007B51A2325
:10F5200019228DE80C004FF04022042311460348B5
:10F53000FFF752FE03B05DF804FB00BF0840002057
:10F5400010B50424002280F8C740022480F8C410BB
:10F5500080F8C520032180F8C82080F8C92080F8F1
:10F56000CA4080F8CC20012480F8CE200C2280F8FC
:10F57000C61080F8CB4080F8CD1080F8CF2010BDA9
:10F58000F8B51148069E17461D460C46FFF70DFFBD
:10F5900039460D48FFF708FE00210B48FFF70FFF23
:10F5A00021462A460848FFF7FDFE00240648FFF7DB
:10F5B000F8FD651C30B10448FFF708FEE4B2305591
:10F5C0002C46F3E7F8BD00BF0840002030B585B0F9
:10F5D00002AB90F8C4100093202208230446FFF7E2
:10F5E000CFFF9DF808309DF80900DFED206A9DF8F7
:10F5F0000B109DF80D209DF80F5043EA0020A082CB
:10F6000000B207EE100A9DF80A30B8EEC77A43EA56
:10F61000012127EE267AE18209B29DF80C3084EDB3
:10F62000077A07EE101A43EA0222B8EEC77A9DF86D
:10F630000E30228343EA052327EE267A638312B233
:10F640001BB284ED087A07EE903A07EE102AF8EE26
:10F65000E77AB8EEC77A67EEA67A27EE267AC4ED87
:10F660000A7A84ED097A05B030BD00BF0000803809
:10F670002DE9F0478C46244C2449964603465525EF
:10F68000634502F1050238D05E7893F800803604B5
:10F6900046EA0868DE7848EA060693F8028046EAF9
:10F6A0000828A8FB04674FEA971A05FB1A88043359
:10F6B00018F8016002F8016CAAFB04674FEA971979
:10F6C00005FB19AA1AF8016002F8026CA9FB04678D
:10F6D0004FEA971805FB189919F8016002F8036CB6
:10F6E000A8FB0467BE0905FB1688765C18F8017054
:10F6F00002F8047C02F8056CC2E7181A800800EBD7
:10F7000080007044BDE8F087C1C0C0C038940200DA
:10F7100010B513460C46014610B10CB19A0705D03E
:10F72000054B064A06488B2106F05EFC224619442A
:10F73000FFF79EFF001B10BD8E940200569502003D
:10F74000B994020030B504789BB00546ECB90123AA
:10F75000037003F067FF00F025FC6860A8B9072379
:10F7600002AA01A9019302F049FE686068B902A8E3
:10F7700000F00BFC0128686003D102A800F0F9FB3F
:10F7800068606C68B4FA84F4640920461BB030BD2C
:10F79000F8B5074608460D4607F0C9FB441C05F0BE
:10F7A000F9F80128204602D106F096FC01E005F0A8
:10F7B0001EFB0446284607F0BAFB0021421C2046E7
:10F7C0006E1C06F0CEFC30462F2107F075FB064676
:10F7D00048B1421B2946204606F09DFC204600F019
:10F7E00005FA0136EFE7284600F000FA786005F0E8
:10F7F000D1F80128204602D106F076FC01E005F0A0
:10F8000005FB7868B0FA80F04009F8BD024B002291
:10F810005A601A70704700BFC4400020F0B587B02E
:10F8200005461646684601221F460C9C00F06CF8FF
:10F83000684600F07BF808B9002413E05CB93A464A
:10F840003146684600F0E0F8059B6B600446684668
:10F8500000F071F806E02146684600F0A8F800289C
:10F86000EDD1E9E7684600F073F8204607B0F0BD37
:10F87000F0B587B005460C9C1646684602221F4626
:10F8800000F042F86CB93A463146684600F022F87A
:10F89000059B6B60041C684618BF012400F04BF800
:10F8A00006E02146684600F082F804460028EAD1C6
:10F8B000684600F04DF8204607B0F0BD13B502AB26
:10F8C000026803F8011D546819460122A04702B0DE
:10F8D00010BD704738B504460069154600F05AF966
:10F8E000002860610CBF2846002038BD10B50446D2
:10F8F0000846114604F1100200F025F96061B0FAE3
:10F9000080F0400910BD000038B54FF47A7500232F
:10F910008560054D43600446056003614361FFF760
:10F92000E5FF204638BD00BF6C950200006900303D
:10F9300018BF0120704710B50446006900F010F9A7
:10F9400000236061B0FA80F02361400910BD00001F
:10F95000044B10B50360036904460BB1FFF7EBFFDE
:10F96000204610BD6C95020010B50446FFF7F0FF6D
:10F97000204605F08AFD204610BD13B502A90023DC
:10F98000044641F8043D006900F025F960610198E2
:10F9900002B010BD006900F015B938B50546FFF793
:10F9A000ECFF04462846FFF7F5FF201A38BD38B5AE
:10F9B0000C1E054604DAFFF7E0FF0134211800E0D1
:10F9C0002146286900F0F3F86861B0FA80F0400938
:10F9D00038BD70B504460E460569FFF7DBFF811B95
:10F9E000284600F0E4F86061B0FA80F0400970BD8C
:10F9F00038B50368DB680446984701210546204670
:10FA0000FFF7E7FF284638BD13B5044602AB1046A2
:10FA1000002243F8042D0A460146206900F0A9F8A7
:10FA20006061019802B010BD07B501220DF1070118
:10FA3000FFF7EAFF01280CBF9DF807004FF0FF30E9
:10FA400003B05DF804FB000038B5044668B1074B0D
:10FA50001D6845B12146286807F03CFA08B9686876
:10FA600038BDED68F5E7284638BD38BDCC400020EC
:10FA700070B5064605462B4613F8014B84B13A2C67
:10FA800001D01D46F7E7AD1BEDB2681C06F024FB64
:10FA9000044628B12A46314606F03DFB0023635553
:10FAA000204670BD38B503461C4613F8012B7AB1C9
:10FAB0003A2AF9D10134204607F039FA054606F012
:10FAC0000BFB2A46214606F026FB0022425538BD94
:10FAD000BDE8384007F010BA0D2070470D20704780
:10FAE0000D2070470D2070470D2070470D20704786
:10FAF0000D2070470D2070470D2070470D20704776
:10FB00000D2070470D2070470D2070470D20704765
:10FB10000D20704708B500F093F8024B002808BF8D
:10FB2000184608BD9838002008B5FFF7A1FF10B1AE
:10FB3000FFF78AFF02E000F079F818B9BDE8084045
:10FB4000FFF7E8BF08BD70B504460D461646FFF73F
:10FB5000EBFF3246036829462046BDE8704018474F
:10FB600010B5044600F07CF843682046BDE810401C
:10FB700018472DE9F04105460E461746984600F015
:10FB80006FF8846843463A4631462846A446BDE8A5
:10FB9000F041604770B504460D46164600F060F827
:10FBA0003246C36829462046BDE87040184770B504
:10FBB00004460D4600F054F8294603692046BDE886
:10FBC0007040184710B5044600F04AF843692046D3
:10FBD000BDE81040184770B504460D4600F040F8E7
:10FBE000294683692046BDE87040184710B5044691
:10FBF000FFF79AFF436A2046BDE81040184700000F
:10FC0000F8B5094B1F6806463C461D4634B1F16BFA
:10FC1000E06B07F05FF928B1246CF7E737642E60DA
:10FC20002046F8BD0B20F8BDD0400020034B1868DB
:10FC300018B1036C002B18BF00207047D040002083
:10FC400038B5064B1C68054634B12946E06B07F011
:10FC500041F908B1246CF7E7204638BDD0400020B8
:10FC600008B1006870470148704700BF983800200D
:10FC700010B5044604F08EFE0128204603D1BDE8ED
:10FC8000104006F031BABDE8104005F0BFB810B51D
:10FC9000044604F07FFE0128204603D1BDE8104051
:10FCA00006F01ABABDE8104005F0A1B8084808B53A
:10FCB00000234FF0FF321946006804F015FA28B906
:10FCC000044B054A05488C2106F08EF908BD00BF9B
:10FCD000D4400020C1950200B7950200E1950200D2
:10FCE000074808B500231A461946006804F00AF9C7
:10FCF00028B9044B044A0548952106F075F908BD5A
:10FD0000D4400020C195020088960200E1950200CF
:10FD100010B50446FFF7CAFF0CB1636833B9074B4F
:10FD2000074A084840F2722106F05EF95C68FFF766
:10FD3000D7FF2046BDE8104001F066BB5196020097
:10FD4000A4950200E195020010B50446FFF7AEFF4E
:10FD5000A468FFF7C5FF204610BD0000F8B50446B3
:10FD60000D4616461F46FFF7A1FF0CB1606830B97B
:10FD7000084B094A09484FF4167106F035F93B461D
:10FD80003246294601F0E3FF0446FFF7A9FF20466B
:10FD9000F8BD00BF5196020093950200E195020064
:10FDA00010B50446FFF782FF204600F0D3FD04465D
:10FDB000FFF796FF204610BD38B504460D46FFF705
:10FDC00075FF2946204600F0A9FD0446FFF788FF8D
:10FDD000204638BD70B504460D46FFF767FF02F0B8
:10FDE00005FB60B12046FFF75DFE2946064600F0A0
:10FDF0006BFD044626B13046FFF73AFF00E00D24C4
:10FE0000FFF76EFF0CB100232B60204670BD10B5CC
:10FE10000446FFF74BFF02F0E9FA28B12046002123
:10FE200002F07AFC044600E00D24FFF759FF20465B
:10FE300010BD38B504460D46FFF738FF02F0D6FA7C
:10FE400028B12046294602F011FC044600E00D24AA
:10FE5000FFF746FF204638BD10B50446FFF726FFE2
:10FE600002F0C4FA20B1204602F0EFFB044600E0A5
:10FE70000D24FFF735FF204610BD38B504460D466A
:10FE8000FFF714FF2946606801F006FD0446FFF7FE
:10FE900027FF204638BD38B504460D46FFF706FF5C
:10FEA0002946204600F062FE0446FFF719FF20466F
:10FEB00038BD70B504460D461646FFF7F7FE02F052
:10FEC00095FA30B120463246294603F0A1F804469F
:10FED00000E00D24FFF704FF204670BDF8B504468E
:10FEE0000D4616461F46FFF7E1FE3B4632462946C1
:10FEF000204600F04AFE0446FFF7F2FE2046F8BD19
:10FF000010B5044638B1FFF7D1FE204600F060FE80
:10FF10000446FFF7E5FE204610BD73B505460C46C6
:10FF20001646FFF7C3FE02F061FA88B12846FFF7D4
:10FF3000B9FD22460146054601A800F0A1FD044690
:10FF400068B9019B33607DB12846FFF791FE00E060
:10FF50000D24FFF7C5FE4CB10023336006E0002DF1
:10FF6000F2D1FFF7BDFEF7E7FFF7BAFE204602B079
:10FF700070BD10B50446FFF799FE204600F03AFF29
:10FF80000446FFF7ADFE204610BD10B50446FFF74E
:10FF90008DFE204602F066FF0446FFF7A1FE2046D4
:10FFA00010BD000038B500F0F9FB00F0E5FB0120C2
:10FFB00004F028F82B4B186000284ED02A4D2B4C0B
:10FFC0002868FFF755FEA0680001FFF760FE286073
:10FFD00008B9052038BD264D2868FFF749FE23687B
:10FFE00018205843FFF753FE28600028F1D0214D18
:10FFF0002868FFF73DFE63680C205843FFF747FE73
:020000022000DC
:1000000028600028E5D01C4D2868FFF731FE2369E1
:1000100024205843FFF73BFE28600028D9D0174D15
:100020002868FFF725FE60694001FFF730FE286071
:100030000028CED0124D2868FFF71AFEE0680001B4
:10004000FFF725FE28600028C3D002F033F90446EC
:1000500028B90C48FFF7D4FD01E00A2038BD20463E
:1000600038BD00BFD440002084430020C44300209A
:100070008C430020C0430020F4420020884300202D
:10008000BC430020DC3800200268094B9A420DD1A5
:100090004268084B9A4209D18268074B9A4205D1BF
:1000A000C36806481B1A58425841704700207047E1
:1000B000E2318AB98C42B07F5382E0AC8EFC85B1CC
:1000C00008B50146FFF7E0FF20B1C87DA0F1FF03AE
:1000D0005842584108BD007D431E58425841704760
:1000E00038B50C46054618220021204606F039F89E
:1000F000074B08480849094A84E80F006B682361E8
:1001000001232375AB7B6375AB89E37538BD00BFF5
:100110008EFC85B1E2318AB98C42B07F5382E0AC6B
:1001200042688068101A70472DE9F043164B1E781C
:10013000164B1B6800221433B24221DA571CA3F17C
:10014000140C1D463C46B44217DAAE4633F8088C10
:10015000BEF80C90C14505F114050CD1DCF808502F
:10016000DEF808309D4235BF048002800A800C8092
:100170000020BDE8F0830134E5E714333A46DBE7BD
:100180000620BDE8F08300BF80430020904300209C
:1001900008B5044803F0FAF918B10023036043607E
:1001A000836008BD9443002010B50446406801F008
:1001B0003DF928B9054B064A06482B2105F014FFE6
:1001C00021460548BDE8104003F0F8B9E896020062
:1001D000AF960200139702009443002013B5044623
:1001E000FFF7D6FF01A9206001F08AFF0028F7D1B0
:1001F000019802B010BD10B51423144600F0FAFCAB
:1002000030B9206801F012F900280CBF0920002045
:1002100010BDF7B50446008A14300F4615460DF19F
:10022000030101AA80B21E4601F08AFFC8B9142357
:10023000224601999DF8030000F008FD88B9238A41
:1002400033B99DF803302B70019B3360002008E028
:1002500001999DF803003A46143100F0F7FC00289C
:10026000EFD003B0F0BD000008B583682BB90B4B8D
:100270000B4A0C48D82105F0B7FE02685B6852684B
:100280000A6042684B60C3688A8113B94FF0FF333C
:1002900000E05B688B60038A0B8208BD89970200CF
:1002A000A79702001397020030B5044689B048684A
:1002B0000D4601F0BBF830B9124B134A13484FF406
:1002C000AB7105F091FE284601F0F8F810B12560F9
:1002D000062015E002AA0DF10701A86800F020FD34
:1002E00003AA02999DF80700FFF785FF40B9BDF802
:1002F0001C30BDF8182025606260A060E060238299
:1003000009B030BDE8960200C596020013970200BE
:1003100073B51D4603680C4616460DF1030101AA8C
:10032000986800F0FDFC01999DF803001431214408
:1003300033462A46019100F05DFC02B070BD10B555
:1003400000218468FF2000F0D7FC231A584258414E
:1003500010BD000030B5054689B048680C4601F074
:1003600065F830B91D4B1E4A1E484FF4C67105F0A2
:100370003BFE2046FFF7E3FF20B100202C60A86081
:10038000E86028E002AA0DF10701A06800F0C8FCAF
:1003900003AA02999DF80700FFF72DFFD8B9BDF811
:1003A0001C30BDF818202C60A860E8602B826A60C1
:1003B000049801F055F8B0FA80F4A8600598431C41
:1003C0004FEA541401D1204605E001F05FF8E860DF
:1003D0000028F8D1012009B030BD00BFE896020026
:1003E000949602001397020030B587B0054601F0DD
:1003F00065F838B1284601F0B5F82846FFF7D4FE75
:10040000012014E0294601A8FFF7A4FF01280446B3
:100410000CD8039B23B11A69954204BF049A1A6150
:10042000284601F09FF82846FFF7BEFE204607B099
:1004300030BD000010B50446A16959B10B684A6887
:100440000BB15A6000E0E2614A680348136003F0B0
:10045000B5F8F1E710BD00BF3C43002010B50446DD
:1004600038B1FFF7E7FF21460248BDE8104003F02E
:10047000A5B810BDD042002010B5084803F086F89A
:10048000044640B12422002105F06BFE23460022E1
:1004900043F8182FE361204610BD00BFD042002072
:1004A00010B5054803F072F8044618B12022002167
:1004B00005F057FE204610BD3C43002008B5FFF76D
:1004C000EFFFB8B90C4B5B685B68186860B1836973
:1004D00043B1FFF7AFFFFFF7E3FF58B9074B084AF7
:1004E0003F2104E04368EFE7064B074AE62107484F
:1004F00005F07AFD08BD00BF203900207398020086
:10050000CA970200A29F0200E3970200FD97020033
:1005100083690BB90B6007E0DB690B60C3695B683B
:1005200019680B8BC9690B4413607047094A13683B
:100530002BB199688842196802D00B46F8E77047DA
:10054000586809B1486000E050605A681846116068
:10055000FFF784BF20390020F8B5284D2C680746E6
:100560000E4624B1A3689E4243D02468F9E7FFF702
:1005700083FF0446E0B96B685B68186818B9204BC4
:10058000204A802111E0036842680BB15A6001E003
:100590001A494A6042681360FFF760FFFFF76CFF7B
:1005A000044628B9164B174A8821174805F01CFD48
:1005B00024220021204605F0D4FD314604F1080034
:1005C00001F078FB064670B904F12001A06801F043
:1005D00039F9064638B92B68236003B9074B5C60CC
:1005E0002C60656005E02046FFF738FF00233B6084
:1005F00001E03C6000263046F8BD00BF20390020F5
:10060000999702009B980200FD970200074B10B5D6
:100610001C6820464CB1FFF70DFFA16804F10800EB
:1006200001F048FB08B92468F3E710BD2039002029
:1006300032B100230B60C3694B601960C161704720
:1006400083690B600BB1596000E0C16140F8181F6D
:10065000486070472DE9F043036A89B00646894631
:100660001746002B7BD002AA01A9FFF751FF029D7C
:100670007DB1019B4B4504D98369D3F81480DD69B2
:100680000BE04D4505D9C3695B681C68D4F8088048
:1006900004E0B368356AD3F810800024019B9D42C2
:1006A00019D834B1314B324A324840F2A91105F021
:1006B0009BFCFFF703FF414604460830FFF74AFE64
:1006C00000284FD1238BED1A0246E56121463046C2
:1006D000FFF7AEFF00E01CB1E569D4F814800AE032
:1006E000414603A8FFF736FE00283BD1BDF81C3079
:1006F000DDF81880ED1A4D452BD834BBFFF7DEFE30
:100700000DF10C0C044600F1080EBCE80F00AEE839
:100710000F00DCF80030CEF80030B369E56163B15A
:10072000F3695A68126892683AB1904505D100227F
:1007300084E80C001C60F46107E03046FFF77AFEA5
:10074000002221463046FFF773FF57B13C6000207E
:1007500008E0002CA2D063685B681C689EE7062056
:1007600000E0384609B0BDE8F08300BF879802007A
:10077000BA970200FD97020010B5074C206850B1EF
:10078000036842680BB15A6000E06260426813601F
:10079000FFF764FEF2E710BD203900200F4B1A6806
:1007A0000AB964221A605A6812B90C4A642151606D
:1007B0009A6812B9094A042191601A6912B9074A64
:1007C000042111615A6912B9044A40215161DB6860
:1007D00013B9024B0422DA60704700BFC443002003
:1007E0002DE9F0410646884617461C46ACB1B4F5E3
:1007F000807F254628BF4FF480752B46094A39462D
:10080000404600F0F7F958B930462A46054902F04B
:100810000BFF2F440646641BE8E7069B20461E801C
:10082000BDE8F081DC43002001461222002002F0E6
:10083000FBBEF0B585B005460E461746FFF7F4FF40
:1008400004AC2B8A24F8020D07F1140200943146FF
:10085000FFF7C6FF28B9BDF80E006B8A181A18BF3B
:10086000012005B0F0BD38B504460D46FFF7DCFFAA
:10087000228A294602F0D8FE608238BDF0B585B0E4
:1008800005460E461746FFF7CFFF04AC6B7C24F8F5
:10089000020D07F1140200943146FFF7A1FF28B9B9
:1008A000BDF80E006B8A181A18BF012005B0F0BD04
:1008B00038B504460D46FFF7B7FF627C294602F0C3
:1008C000B3FE608238BD000073B50E4601A901F089
:1008D000B1FE0446B0B9019B586800F095FD98B18F
:1008E0000C4802F053FE054680B11022214605F067
:1008F00038FC0198686000F0E3FF074BAC60EC60E7
:100900002B603560204602E0042000E0052002B0A4
:1009100070BD00BFF8420020DC38002070B50446EE
:10092000C0680E4610B963681D6903E0C56800F031
:10093000DBFF60B9E56015B93560062070BD28465B
:1009400000F0BEFF024B44F8083F0020346070BD49
:10095000DC38002010B5044608B9002010BDC0687E
:1009600020B9606800F0C0FF60B904E000F0BCFF8F
:100970000028F6D010BD2146034802F01FFE0028D3
:10098000EBD00A2010BD00BFF84200202DE9F04155
:1009900088B0054601A80E461746984600F00AFFA3
:1009A000044600285AD102AA0DF1030107F11400F0
:1009B00001F0C6FB0446002850D11422FF2103A8F1
:1009C00005F0CFFBB8F1000F01D0284A00E0284A1B
:1009D0001368591C116003934FF0FF320023ADF8E8
:1009E0001830059205B16A680492314603A88DF863
:1009F0001C308DF81D70FFF75BFF029B9DF80320F4
:100A0000314603A800F0F2FE044638BB019E039B6A
:100A1000736002999DF8030000F06EF9B0600198D0
:100A200001230375046135B10146284601F0AAF996
:100A3000044698B90AE0039B2BB10E4B0E4A0F48AF
:100A40007E2105F0D1FA202101F000FB019800F091
:100A50004DFD0E9B019A1A60002003E0019800F002
:100A600025FE204608B0BDE8F08100BFE04400202C
:100A7000EC440020B49802004F990200DA9802007A
:100A80002DE9F041804690078AB00F46164663D0A4
:100A900012F00C0303D091075ED50C2B5CD03148CB
:100AA00002F074FD0546002858D01022002105F000
:100AB00058FB394605A801F078FD03AA04A905A84A
:100AC00001F078FD062804460ED1059B022B3DD18E
:100AD000B2073BD50398002838D02B1D00939DF812
:100AE00020200799002311E080BB049B586800F088
:100AF0008BFC50BB33070ED5384601F0A6FD2B1DED
:100B00009DF820200799039800932346FFF73EFFA6
:100B10000446D8B901E0049B6B6006F0040303F0BF
:100B2000FF023BB105F10801686800F0B5FE04461C
:100B300060B900E0AA60686800F0C2FE0A4B2E733C
:100B40002B600020C8F8005009E00424294605481D
:100B500002F034FD204602E0042000E005200AB047
:100B6000BDE8F0811C430020DC38002037B5044686
:100B70000D46406801A900F08FFE20B9019BAB42F1
:100B80002CBFA560032003B030BDF0B585B005468D
:100B90000E4617461C4601F029FC90B12B7BDB0763
:100BA00011D503AB009332463B46A968686800F054
:100BB000FDFF58B9AB68039A1344AB602CB12260B7
:100BC00004E00D2002E00C2000E0204605B0F0BD5E
:100BD00010B50446406800F087FE38B92146044845
:100BE00002F0ECFC00280CBF00200A2010BD00BF62
:100BF0001C430020F8B5104D2D7885421C4605D8C1
:100C00000E4B0F4A0F48312105F0EEF90E4D00EB67
:100C100080002E68800035180C446F68BC4209D8EB
:100C200030580144E87B02F0DDFB002814BF0220AD
:100C30000020F8BD0320F8BD804300206C9902001D
:100C4000169A02008699020090430020F8B5124CD3
:100C5000247884421D4605D8104B114A114858216A
:100C600005F0C2F9104C00EB8000266880003418B3
:100C70000D446768BD420AD8A768B94207D3305807
:100C80000144E07B02F0CEFB18B9A560F8BD03205B
:100C9000F8BD0220F8BD00BF804300206C9902001F
:100CA000269A020086990200904300202DE9F8431D
:100CB000089C80460E4691461F46BCB1B4F5807F25
:100CC000254628BF4FF480752B460A4A31464046D8
:100CD000FFF790FF58B92B46064A39464846FFF7BA
:100CE000B5FF20B92E442F44641BE6E72046BDE83B
:100CF000F88300BFDC430020B1F1807F08B505D345
:100D0000044B054A0548A62105F06EF941EA00604A
:100D100008BD00BFFC9902005D990200869902009F
:100D2000030E20F07F400B70106070472DE9F041FA
:100D3000134F00EB80043B68A4001D1986B00646E3
:100D400088466A681959E87B02F08CFBA0B9A86054
:100D500069462846FFF7C4F9B8F1000F05D03B6893
:100D60001C44FF23A381172300E018236A460021B7
:100D70003046FFF76BFF00E0022006B0BDE8F081CF
:100D80009043002030B5164B1B78834287B0044651
:100D90000D4605D8134B144A1448252105F024F9B3
:100DA00018236A460021FFF725FFB8B9104A1268D8
:100DB00004EB840302EB830368469D81FFF780F90F
:100DC000014618B92046FFF7B1FF07E006AA012344
:100DD00002F8015D17212046FFF738FF07B030BD4C
:100DE000804300206C990200AE9A0200379A0200FC
:100DF000904300202DE9F74F3B4E074601F05AFA89
:100E0000002333701A4601200C2505FB00714C6845
:100E10006CB1B0F5807F5ED002EB420107EB81013F
:100E200049688C4284BFC2B201230130EDE703B1AF
:100E30003270C0B201F0D2F9044600284ED1DFF87A
:100E4000B890DFF8B8A0B84605464FF0140B99F8F3
:100E500000309D4223DADAF80000D8F800200BFBBE
:100E600005F143184250D8F8042031785A6098F8B8
:100E70000820DA738D424FF000029A609A7306BF21
:100E8000FF229A819D816B1A59425941E8B2FFF7BE
:100E90004DFF08F10C08044600BB0135D7E701F00F
:100EA0000BF90446D0B9114B0093024601231049B7
:100EB000FFF76CFD044688B901F0E8F9044668B90B
:100EC00001F0E2F8044648B901F0ACF9044628B94B
:100ED000084B1F6004E003B13270042401F0EAF90A
:100EE000204603B0BDE8F08FF0420020B843002058
:100EF0001FAB02005C430020804300209043002091
:100F0000F0B585B00D4614460DF10B0103AA064657
:100F10000068FFF705FF0C4B9DF80B001B68039959
:100F200004EB840203EB820322469F6800953B4654
:100F3000FFF7BCFE054620B939462046FFF7DCFE28
:100F40003060284605B0F0BD90430020F0B504465F
:100F500087B00E4617460025B5421AD22CB90E4B63
:100F60000E4A0F48842105F03FF8214601A8FFF7FB
:100F7000F1F978B9BDF8141014313A4689B204F188
:100F80000800FFF7BDFF28B9BDF81430049C1D44CC
:100F9000E2E7002007B0F0BD999702002A9C02000A
:100FA000F09A02002DE9F04F95B0814615461E4695
:100FB000DDF878B011B91A462946B3E014220021B1
:100FC0000AA805F0CEF803F0E5FC0128284602D176
:100FD00005F082F801E003F00AFF0746002800F060
:100FE0008F80142200210AA805F0BBF8514B1B6822
:100FF0000193A8464C46B8F1000F3AD021460FA8FD
:10100000FFF7A8F9824600287CD1BDF84C30C3EB2D
:1010100008080F9B04AA98680DF10F01FFF780FEE6
:101020000499BDF84C309DF80F00143107EB08020D
:101030000491FFF7DFFD8246002863D1A1450DD062
:10104000BBF1000F06D0DBF800309C4204BF2368E0
:10105000CBF800302046FFF7C7F908E00DF13C0E51
:10106000BEE80F000AAC0FC4DEF800302360129C0B
:10107000C1E7DDF828B0BBF1000F05D12E4B2F4A98
:101080002F48E82104F0B0FF142241460DEB020086
:1010900005F067F8DBF8043005930B9B0133ADF8DE
:1010A00020300C9B5B68069314B94FF0FF3300E0CF
:1010B00063680793394605A8ADF82450FFF7D3FBC2
:1010C000019A06EB860302EB830A1423DAF8084040
:1010D0000DEB030221463046FFF7B8FD824688B982
:1010E0002B463A4604F114013046FFF7AFFD824625
:1010F00040B921463046FFF7FFFDC9F8080001E07E
:101100004FF0050A03F046FC0128384602D104F0EE
:10111000EBFF01E003F07AFEBAF1050F05D132468C
:1011200029464846FFF712FF8246504615B0BDE8F3
:10113000F08F00BF90430020639B0200CC9A020016
:10114000F09A02002DE9F04F814B82491E78824BC4
:101150000F781B6891B01A46029305900123002472
:101160008B46B34216DA9F4211D00299906904EB84
:10117000840501EB85056968884207D8A74205D038
:1011800092F82210A87B091A090600D5DCB20133B7
:101190001432E6E7A74203D1704B714A712148E04F
:1011A000029B04EB840903EB8909384699F80C107B
:1011B000FFF7E8FD002840F0C7800390694B039AD1
:1011C0001B689D5811E00026D5F81080B2463546C0
:1011D000B8F1000F7ED041460BA8FFF7BBF80028FE
:1011E0003CD0002840F0B080089D002D7DD02B68B9
:1011F0006868089300F016F90028F5D009AA0DF1E7
:101200001E01A868FFF78CFD9DF81E30A34213D085
:10121000686800F0FFF80028E6D09BF800306868A6
:10122000049300F0F7F80028CDD14F4B4F4A4FF40C
:10123000A9714F4804F0D8FE29460BA89BF80080FE
:1012400000F038FD38B99DF838104246143105F1E8
:101250000800FFF755FE0028DAD075E00AAA0DF164
:101260001F01D8F80800FFF75BFD9DF81F30A3426F
:101270001CD1404ABDF83C3012885344002D08BFB1
:101280004546934203D8A84518BF01261EE008AB87
:1012900000935246049B31462846FFF783FE002800
:1012A0009FD1BDF83C30454606460FE06DB108AB16
:1012B00000935246049B31462846FFF773FE0028F0
:1012C0008FD106460346054600E05346DDF83880D8
:1012D0009A467DE7002D87D008AB00935246049BC9
:1012E00031462846FFF75EFE7BE7039B0433B3F5E8
:1012F000806F03937FF462AF029B07EB870703EBDA
:101300008707D9F80830BA689A4204D91A4B1B4AA1
:1013100040F2FD118DE799F80E30013389F80E3057
:1013200001212046FFF702FD70B9059B1BB1059A0C
:101330009BF8003013708BF80040FFF767F918B97D
:101340000F4A13680133136011B0BDE8F08F00BF7E
:1013500080430020F0420020904300207C9B02004C
:10136000169C0200E8440020A39B0200019C02009E
:10137000F09A0200B4430020DC9B0200E89A0200CD
:10138000DC4400202DE9F843104FDFF844908046FC
:101390000E4600253B789D4211DA3046FFF7D2FE1B
:1013A000044678B93078D9F8003000EB800003EBC0
:1013B0008000FEF7B5FE404504D20135EAE708207B
:1013C000BDE8F8832046BDE8F88300BF80430020D5
:1013D000904300200B4B70B51D68C4B2002255F835
:1013E00024100B4663B15E68B04206D142B1186862
:1013F0001060196045F8243002E01A461B68F1E7D6
:10140000184670BDE8440020B0F1805F2CBF00207A
:101410000120704700F17040B0F1E04F2CBF002078
:1014200001207047C043C00F70470000034B00F11C
:10143000004098428CBF002001207047FEFFFF7FD4
:10144000064BC2B21B6853F8223023B15A6890424F
:1014500001D01B68F9E71846704700BFE844002038
:1014600008B50346FFF7DEFF28B9054B054A0648D5
:10147000722104F0B9FD1846BDE80840FFF7AABF85
:10148000659C02009C9D02007F9C020008B5074BF2
:1014900000F100429A4205D9054B064A06487D21D3
:1014A00004F0A2FDBDE80840FFF794BFFEFFFF7FF8
:1014B000F49C0200879D02007F9C020010B5002171
:1014C0008468FF20FFF718FC231A5842584110BDCA
:1014D00010B5FFF7B5FF38B184680021FF20FFF792
:1014E0000BFC231A5842584110BD0000416810B54A
:1014F00004460846FFF7A4FF18B1144B144A9A217A
:1015000012E0144BCAB21B6853F82200206043F863
:1015100022400846FFF786FF70B10846FFF7A0FF9C
:1015200028B90D4B0A4AA3210C4804F05DFD402167
:10153000BDE8104000F08ABD0846FFF781FF18B9EA
:10154000074B034AA621EFE710BD00BF0E9D020026
:10155000439C0200E8440020349D02007F9C02006E
:10156000389D020038B5436804461846FFF75AFF15
:10157000054618468DB1FFF773FF054618B91C4B99
:101580001C4AB32106E0402100F06BFD60B91A4B04
:10159000184AB421194804F027FDFFF751FF18B984
:1015A000174B144AB621F5E7164B60681A68C1B2AA
:1015B00052F821309C4203D1236842F8213006E0E2
:1015C0001A68944201D01346FAE722681A60FFF7BE
:1015D00029FF20B11DB14021284600F03CFD606884
:1015E000FFF72EFF18B1084B024AC221D2E738BDDF
:1015F000349D0200549C0200569D02007F9C020014
:10160000389D0200E84400200E9D020010B50B4CEE
:10161000206804F069FD4FF4806004F05DFD2060F7
:1016200048B1002319462268D1500433B3F5806FC6
:10163000F9D1002010BD052010BD00BFE8440020F6
:1016400073B516461D46CA18037B9A420C4606DD42
:101650000C4B0D4A0D4840F2D12104F0C5FC036843
:1016600001AA0DF103019868FFF75AFB01999DF853
:101670000300143121442B4632460191FFF7BAFA98
:1016800002B070BD2A9E0200FCA102005A9E020018
:1016900010B5054801F07AFF044618B11822002160
:1016A00004F05FFD204610BD6043002010B50446E5
:1016B000B0B1437D5B0603D50A4B0B4A382106E0E7
:1016C0004068FFF7AFFE28B9084B074A39210848A0
:1016D00004F08AFC21460748BDE8104001F06EBFC7
:1016E00010BD00BFD09E0200149E02000A9F02009F
:1016F0005A9E02006043002070B50E46044620B991
:10170000254B264A4FF4B27105E0037D33B9244BD3
:10171000224A40F26511234804F066FC013BDBB22B
:101720000375002B33D14068FFF774FE054630B3D4
:101730006068FFF76FFEC0B1637D606863F07F0390
:101740006375FFF767FE38B9174B184A4FF4867177
:10175000E1E7FEF749FE18B920690028F9D104E055
:10176000012816D1AEB1002323612046FEF7DEFE2C
:101770002046FFF7F7FE2046FFF798FF07E02046D8
:10178000FFF7F0FE0A4B1A6822601C6002E0002599
:1017900000E00546284670BD449F020062A1020099
:1017A000509F02005A9E0200A39B020093A10200D8
:1017B000D840002013B50446FFF76AFF01A9206056
:1017C00000F09EFC0028F7D1019802B010BD10B5C2
:1017D00014231446FFF70EFA30B92068FFF722FEF3
:1017E00000280CBF0920002010BD00002DE9F041A9
:1017F000047C34F080040546884616461F4605D012
:101800000D4B0E4A0E48782104F0EEFB02461423DD
:1018100039463046FFF71AFA48B96B7C43B1424665
:1018200007F114013046BDE8F041FFF70FBA044656
:101830002046BDE8F08100BF6C9F02007DA1020040
:101840005A9E020030B5044687B040680D46FFF747
:10185000E1FD28B90D4B0E4A0E48962104F0C4FB59
:1018600000232B602169A37569B101A8FEF772FD01
:1018700050B92A68BDF81430049913442B60A37D35
:101880000133A375F0E7084607B030BDA39B020003
:10189000E0A102005A9E020013B50C46014601A8C1
:1018A000FEF75AFE10B9019B1B6A236002B010BDFF
:1018B00083680BB1586870474FF0FF3070470000E5
:1018C00008B530B9054B064A064840F2791104F0D4
:1018D0008BFB037D01330375002008BD449F02008C
:1018E000B5A102005A9E02000021FFF705BF0000CB
:1018F00030B5836889B0054633B91E4B1E4A1F4870
:1019000040F2D31104F070FB02AA0DF1070114207C
:1019100000F016FC58BB2A686B68516803910133CC
:1019200080216B608DF81C101269ADF818304FF0F3
:10193000FF33049302B1536805931149002303A8B0
:101940008DF81D30FEF7B4FF029B9DF807200C496F
:1019500003A8FFF74BFF2B6804465868FFF75AFDB2
:1019600020B12A68537D63F07F035375204609B088
:1019700030BD00BFA49F0200F89D02005A9E0200E5
:101980001FAB020038B503685B7D9B06044604D498
:10199000164B174A40F2463105E0856835B9154BBC
:1019A000134A4FF45271144804F01EFB6868FFF7A5
:1019B0002BFD20B9114B0E4A40F24931F3E72B6958
:1019C0002268934202D1DB682B6106E0D9688A4223
:1019D00001D00B46FAE7D268DA6023680022DA60A9
:1019E0005A7D22F020025A7538BD00BFBD9F02000B
:1019F0004AA10200AE9F02005A9E020000A002000F
:101A00002DE9F843836804460F4616460BB1FFF7ED
:101A1000B9FF2268537D63F07F03537523685868CC
:101A2000FFF7F2FC78B324682046FFF79BFD1B4BC1
:101A30001A6822601C601D4698462C6844B3606892
:101A4000FFF7E2FC30B9164B164A17484FF4D47131
:101A500004F0CAFAD8F8003020691B68C8F80030D2
:101A600068B1D0F80C9026B13368834208BFC6F83D
:101A700000903946FFF740FE68B94846F0E7204637
:101A8000FFF714FED9E739462068FFF735FE10B995
:101A90000020BDE8F883BDE8F88300BFD8400020EF
:101AA00033A00200B19D02005A9E02002DE9F047CA
:101AB000057B9542A8BF1546032D2C46A8BF0324DD
:101AC000074690460D3022461E46894605F037FAF5
:101AD00030603068C0B9AC4219DAC4EB050ABAF11B
:101AE000810F28BF4FF0800A53460C4AE1B23846B6
:101AF000FFF7A6FD78B909EB04015246074805F047
:101B00001EFA54443060E4E70020BDE8F0873B7BD8
:101B1000C8EB03033360BDE8F08700BFDC4300205F
:101B20002DE9F047057B0B7B9D4228BF1D46032D09
:101B30002C46A8BF0324164680460F4622460D3188
:101B40000D3005F0FCF93060306808BBA54222DD9D
:101B5000C4EB0509B9F1810F28BF4FF080095FFA86
:101B600084FA4B460F4A51464046FFF769FDB8B923
:101B70004B460D4A51463846FFF762FD80B90A4987
:101B80004A46A1F1800005F0DAF94C443060DBE709
:101B90000020BDE8F08798F80C303A7B9B1A336040
:101BA000BDE8F087DC4300205C4400202DE9F74FBE
:101BB0000C9E0F469A46144622B90EB9002047E003
:101BC0003260FBE701466846FEF7C6FC00283FD1BD
:101BD000009B1A6A3C4494420DF1080828BF144641
:101BE000C7EB040948F8040DA3464D465DB3019BBD
:101BF0002BB10198C3699F420AD800210AE04246EE
:101C00000BF1FF310098FEF725FD0028F1D01FE011
:101C1000F91A89B2028B1344A342A2EB010292B2D9
:101C200082BFE31AD21892B2AD1A0AEB050308304C
:101C3000C2EB0B0BFEF76CFB50B9019B5B685B685A
:101C40001B680193D2E7002EB8D0C6F80090284652
:101C500003B0BDE8F08F0A460021FFF7D1BE0A4667
:101C60000121FFF7CDBE10B50446FFF741FE014646
:101C700020B92046BDE81040FFF7EDBF10BD0000C1
:101C800038B5002185680446FF20FFF735F8854206
:101C900005D1637D43F001036375012038BD044B1A
:101CA0001B689C421ABF607D00F00100002038BD17
:101CB000B843002070B5044688B008460E46FFF7CA
:101CC000DFFF054638B110220021204604F049FA12
:101CD0000625266038E002AA0DF10701B068FFF77B
:101CE0001FF803AA02999DF80700FFF770FD50BB8B
:101CF0000498BDF818306360431C266001D1A560CC
:101D000002E0FFF7ADFBA0609DF81D302373032BAD
:101D10000ED873B99DF91C30002B15DA2268537D5B
:101D200063F07F035375737D63F07F0373750BE07E
:101D3000032302999DF8070004F10D021431FEF708
:101D400059FF0028E6D00546284608B070BDF0B51A
:101D500085B00E460146684615461F46FFF7AAFFA6
:101D600070B99DF80C40B44228BF06F1FF342346F9
:101D70002A4600216846FFF763FC08B928553C70E5
:101D800005B0F0BDF0B507468BB040680C46FFF7D4
:101D90003BFB20B91E4B1F4A40F21B3106E0637D1E
:101DA0009B0606D51C4B1B4A4FF447711B4804F099
